{
  "contractName": "Ballot",
  "abi": [
    {
      "inputs": [],
      "stateMutability": "nonpayable",
      "type": "constructor"
    },
    {
      "inputs": [],
      "name": "stage",
      "outputs": [
        {
          "internalType": "enum Ballot.Stage",
          "name": "",
          "type": "uint8"
        }
      ],
      "stateMutability": "view",
      "type": "function",
      "constant": true
    },
    {
      "inputs": [
        {
          "internalType": "address",
          "name": "toVoter",
          "type": "address"
        }
      ],
      "name": "register",
      "outputs": [],
      "stateMutability": "nonpayable",
      "type": "function"
    },
    {
      "inputs": [
        {
          "internalType": "uint8",
          "name": "toProposal",
          "type": "uint8"
        }
      ],
      "name": "vote",
      "outputs": [],
      "stateMutability": "nonpayable",
      "type": "function"
    },
    {
      "inputs": [],
      "name": "winningProposal",
      "outputs": [
        {
          "internalType": "uint8",
          "name": "_winningProposal",
          "type": "uint8"
        }
      ],
      "stateMutability": "nonpayable",
      "type": "function"
    }
  ],
  "bytecode": "0x608060405260008060006101000a81548160ff021916908360038111156100295761002861011b565b5b021790555034801561003a57600080fd5b5033600060016101000a81548173ffffffffffffffffffffffffffffffffffffffff021916908373ffffffffffffffffffffffffffffffffffffffff1602179055506002600160008060019054906101000a900473ffffffffffffffffffffffffffffffffffffffff1673ffffffffffffffffffffffffffffffffffffffff1673ffffffffffffffffffffffffffffffffffffffff1681526020019081526020016000206000018190555060016000806101000a81548160ff0219169083600381111561010a5761010961011b565b5b02179055504260058190555061014a565b7f4e487b7100000000000000000000000000000000000000000000000000000000600052602160045260246000fd5b610799806101596000396000f3fe608060405234801561001057600080fd5b506004361061004c5760003560e01c80634420e48614610051578063609ff1bd1461006d578063b3f98adc1461008b578063c040e6b8146100a7575b600080fd5b61006b6004803603810190610066919061052c565b6100c5565b005b6100756102a4565b6040516100829190610575565b60405180910390f35b6100a560048036038101906100a091906105bc565b610355565b005b6100af6104b8565b6040516100bc9190610660565b60405180910390f35b600160038111156100d9576100d86105e9565b5b60008054906101000a900460ff1660038111156100f9576100f86105e9565b5b14610103576102a1565b600060019054906101000a900473ffffffffffffffffffffffffffffffffffffffff1673ffffffffffffffffffffffffffffffffffffffff163373ffffffffffffffffffffffffffffffffffffffff161415806101ac5750600160008273ffffffffffffffffffffffffffffffffffffffff1673ffffffffffffffffffffffffffffffffffffffff16815260200190815260200160002060010160009054906101000a900460ff165b156101b6576102a1565b60018060008373ffffffffffffffffffffffffffffffffffffffff1673ffffffffffffffffffffffffffffffffffffffff168152602001908152602001600020600001819055506000600160008373ffffffffffffffffffffffffffffffffffffffff1673ffffffffffffffffffffffffffffffffffffffff16815260200190815260200160002060010160006101000a81548160ff021916908315150217905550600a60055461026791906106b4565b4211156102a05760026000806101000a81548160ff02191690836003811115610293576102926105e9565b5b0217905550426005819055505b5b50565b60006003808111156102b9576102b86105e9565b5b60008054906101000a900460ff1660038111156102d9576102d86105e9565b5b146102e75760009050610352565b6000805b60038160ff16101561034f578160028260ff166003811061030f5761030e61070a565b5b0160000154111561033c5760028160ff16600381106103315761033061070a565b5b016000015491508092505b808061034790610739565b9150506102eb565b50505b90565b60026003811115610369576103686105e9565b5b60008054906101000a900460ff166003811115610389576103886105e9565b5b14610393576104b5565b6000600160003373ffffffffffffffffffffffffffffffffffffffff1673ffffffffffffffffffffffffffffffffffffffff16815260200190815260200160002090508060010160009054906101000a900460ff16806103f7575060038260ff1610155b1561040257506104b5565b60018160010160006101000a81548160ff021916908315150217905550818160010160016101000a81548160ff021916908360ff160217905550806000015460028360ff16600381106104585761045761070a565b5b01600001600082825461046b91906106b4565b92505081905550600a60055461048191906106b4565b4211156104b35760036000806101000a81548160ff021916908360038111156104ad576104ac6105e9565b5b02179055505b505b50565b60008054906101000a900460ff1681565b600080fd5b600073ffffffffffffffffffffffffffffffffffffffff82169050919050565b60006104f9826104ce565b9050919050565b610509816104ee565b811461051457600080fd5b50565b60008135905061052681610500565b92915050565b600060208284031215610542576105416104c9565b5b600061055084828501610517565b91505092915050565b600060ff82169050919050565b61056f81610559565b82525050565b600060208201905061058a6000830184610566565b92915050565b61059981610559565b81146105a457600080fd5b50565b6000813590506105b681610590565b92915050565b6000602082840312156105d2576105d16104c9565b5b60006105e0848285016105a7565b91505092915050565b7f4e487b7100000000000000000000000000000000000000000000000000000000600052602160045260246000fd5b60048110610629576106286105e9565b5b50565b600081905061063a82610618565b919050565b600061064a8261062c565b9050919050565b61065a8161063f565b82525050565b60006020820190506106756000830184610651565b92915050565b6000819050919050565b7f4e487b7100000000000000000000000000000000000000000000000000000000600052601160045260246000fd5b60006106bf8261067b565b91506106ca8361067b565b9250827fffffffffffffffffffffffffffffffffffffffffffffffffffffffffffffffff038211156106ff576106fe610685565b5b828201905092915050565b7f4e487b7100000000000000000000000000000000000000000000000000000000600052603260045260246000fd5b600061074482610559565b915060ff82141561075857610757610685565b5b60018201905091905056fea264697066735822122016ba8923445f6639b8017e00e24deab2575672b94d6713a76f0b7fb09003e92464736f6c634300080a0033",
  "immutableReferences": {},
  "source": "pragma solidity >=0.4.22 <0.9.0;\r\ncontract Ballot {\r\n\r\n    struct Voter {\r\n        uint weight;\r\n        bool voted;\r\n        uint8 vote;\r\n    }\r\n    struct Proposal {\r\n        uint voteCount;\r\n    }\r\n    enum Stage {Init,Reg, Vote, Done}\r\n    Stage public stage = Stage.Init;\r\n    \r\n    address chairperson;\r\n    mapping(address => Voter) voters;\r\n    Proposal[3] proposals;\r\n\r\n    \r\n    uint startTime;   \r\n\r\n    /// Create a new ballot with $(_numProposals) different proposals.\r\n    constructor() public  {\r\n        chairperson = msg.sender;\r\n        voters[chairperson].weight = 2; // weight is 2 for testing purposes\r\n        stage = Stage.Reg;\r\n        startTime = block.timestamp;\r\n    }\r\n\r\n    /// Give $(toVoter) the right to vote on this ballot.\r\n    /// May only be called by $(chairperson).\r\n    function register(address toVoter) public {\r\n        if (stage != Stage.Reg) {return;}\r\n        if (msg.sender != chairperson || voters[toVoter].voted) return;\r\n        voters[toVoter].weight = 1;\r\n        voters[toVoter].voted = false;\r\n        if (block.timestamp > (startTime+ 10 seconds)) {stage = Stage.Vote; startTime = block.timestamp;}        \r\n    }\r\n\r\n    /// Give a single vote to proposal $(toProposal).\r\n    function vote(uint8 toProposal) public  {\r\n        if (stage != Stage.Vote) {return;}\r\n        Voter storage sender = voters[msg.sender];\r\n        if (sender.voted || toProposal >= proposals.length) return;\r\n        sender.voted = true;\r\n        sender.vote = toProposal;   \r\n        proposals[toProposal].voteCount += sender.weight;\r\n        if (block.timestamp > (startTime+ 10 seconds)) {stage = Stage.Done;}        \r\n        \r\n    }\r\n\r\n    function winningProposal() public returns (uint8 _winningProposal) {\r\n       if(stage != Stage.Done) {return 0;}\r\n        uint256 winningVoteCount = 0;\r\n        for (uint8 prop = 0; prop < proposals.length; prop++)\r\n            if (proposals[prop].voteCount > winningVoteCount) {\r\n                winningVoteCount = proposals[prop].voteCount;\r\n                _winningProposal = prop;\r\n            }\r\n       \r\n    }\r\n}\r\n",
  "sourcePath": "/Users/avit/Individual/eth/solidity-tutorial/demos/ballot1/contracts/Ballot.sol",
  "compiler": {
    "name": "solc",
    "version": "0.8.10+commit.fc410830.Emscripten.clang"
  },
  "schemaVersion": "3.4.4",
  "updatedAt": "2021-12-28T10:57:02.115Z",
  "networkType": "ethereum",
  "devdoc": {
    "kind": "dev",
    "methods": {},
    "version": 1
  },
  "userdoc": {
    "kind": "user",
    "methods": {
      "constructor": {
        "notice": "Create a new ballot with $(_numProposals) different proposals."
      },
      "register(address)": {
        "notice": "Give $(toVoter) the right to vote on this ballot. May only be called by $(chairperson)."
      },
      "vote(uint8)": {
        "notice": "Give a single vote to proposal $(toProposal)."
      }
    },
    "version": 1
  }
}